:020000040800F2
:10000000002000200915000811050008ED04000873
:1000100000000000000000000000000000000000E0
:1000200000000000000000000000000015050008AE
:100030000000000000000000190500081D05000870
:1000400059150008591500085915000859150008D8
:100050005915000821050008591500085915000810
:1000600059150008591500085915000859150008B8
:1000700059150008591500085915000859150008A8
:10008000591500085915000800000000591500080E
:100090005915000859150008591500085915000888
:1000A000591500085915000859150008351700089A
:1000B0005915000800000000591500080000000054
:0400C0005FF808F1EC
:1000C4000023C25C0133002AFBD1581E7047000094
:1000D400002243088B4274D303098B425FD3030A83
:1000E4008B4244D3030B8B4228D3030C8B420DD396
:1000F400FF22090212BA030C8B4202D31212090224
:1001040065D0030B8B4219D300E0090AC30B8B4261
:1001140001D3CB03C01A5241830B8B4201D38B030F
:10012400C01A5241430B8B4201D34B03C01A5241B4
:10013400030B8B4201D30B03C01A5241C30A8B42F7
:1001440001D3CB02C01A5241830A8B4201D38B02E2
:10015400C01A5241430A8B4201D34B02C01A524186
:10016400030A8B4201D30B02C01A5241CDD2C309F8
:100174008B4201D3CB01C01A524183098B4201D374
:100184008B01C01A524143098B4201D34B01C01A5F
:10019400524103098B4201D30B01C01A5241C308D7
:1001A4008B4201D3CB00C01A524183088B4201D346
:1001B4008B00C01A524143088B4201D34B00C01A32
:1001C4005241411A00D20146524110467047FFE79E
:1001D40001B5002000F0F0F802BDC0460029F7D0B8
:1001E40076E7704703460B437FD4002243088B42D3
:1001F40074D303098B425FD3030A8B4244D3030BAA
:100204008B4228D3030C8B420DD3FF22090212BA6E
:10021400030C8B4202D31212090265D0030B8B42EA
:1002240019D300E0090AC30B8B4201D3CB03C01AD4
:100234005241830B8B4201D38B03C01A5241430BAF
:100244008B4201D34B03C01A5241030B8B4201D39F
:100254000B03C01A5241C30A8B4201D3CB02C01A0A
:100264005241830A8B4201D38B02C01A5241430A82
:100274008B4201D34B02C01A5241030A8B4201D371
:100284000B02C01A5241CDD2C3098B4201D3CB0118
:10029400C01A524183098B4201D38B01C01A5241C7
:1002A40043098B4201D34B01C01A524103098B42CB
:1002B40001D30B01C01A5241C3088B4201D3CB00B6
:1002C400C01A524183088B4201D38B00C01A524199
:1002D40043088B4201D34B00C01A5241411A00D249
:1002E40001465241104670475DE0CA0F00D04942B2
:1002F400031000D34042534000229C4603098B4222
:100304002DD3030A8B4212D3FC22890112BA030AA9
:100314008B420CD3890192118B4208D3890192112B
:100324008B4204D389013AD0921100E08909C309B0
:100334008B4201D3CB01C01A524183098B4201D3B2
:100344008B01C01A524143098B4201D34B01C01A9D
:10035400524103098B4201D30B01C01A5241C30815
:100364008B4201D3CB00C01A524183088B4201D384
:100374008B00C01A5241D9D243088B4201D34B009F
:10038400C01A5241411A00D20146634652415B10E1
:10039400104601D34042002B00D5494270476346C2
:1003A4005B1000D3404201B5002000F005F802BD07
:1003B4000029F8D016E770477047C04630B5434B64
:1003C4008DB0434A009343491823002000F062F99A
:1003D4000821414801F04AF909213F4801F046F952
:1003E400012208213C4801F0B7F8012209213A48CA
:1003F40001F0B2F800230293029A384B9A4205DCCA
:10040400029A01320292029A9A42F9DD00220821EC
:10041400314801F0A1F8002209212F4801F09CF88D
:1004240000230393039A2D4B9A4205DC039A01326D
:100434000392039A9A42F9DD902306A8DB054360F0
:100444000A2301224370013B0370254B00250493CA
:1004540004AB1A718360002303740133FF330993DF
:10046400E1235B02436101F0ABF9642001F010FA6F
:10047400652001F00DFA6E2001F00AFA652001F002
:1004840007FA6D2001F004FA652001F001FA0D204D
:1004940001F0FEF90A2001F0FBF9124C01220821B7
:1004A4000D4801F059F8012209210B4801F054F8D4
:1004B4002378002BF2D03F20257001F0E9F90D20BC
:1004C40001F0E6F90A2001F0E3F9E7E7381900083A
:1004D4002019000830190008000800483F4B4C0060
:1004E400020003007D04002000B5054B83B0009397
:1004F400044A69230449002000F0CCF8FEE7C04612
:100504001419000820190008301900087047C04663
:100514007047C0467047C0467047C04630B5012595
:100524000E4C83B063691D4202D023681D4201D181
:1005340003B030BD08210A4801F01EF8092108481B
:1005440001F01AF8074B084A009308497E2300205B
:1005540000F0A0F863691D436561E9E70004014008
:100564000008004864190008441900085C190008D0
:1005740001213E4B3E481A6882B00A431A605A6809
:1005840002405A601A683B4802401A601A683A48A6
:1005940002401A605A68394802400F205A60DA6AE9
:1005A4008243DA621A6B364802401A635A6BA020FF
:1005B4008A435A6300229A60009201928022196849
:1005C40052020A4380211A608902C00102E0009AA3
:1005D400824208D01A680A400192009A01320092BD
:1005E400019A002AF3D08022204B92021B68134008
:1005F40006D001230193019A012A05D002B0704765
:100604000193019A012AF9D111211E4B1E48196048
:10061400164B5968596059685960596801405960C6
:10062400A4215868890301430F205960D96A814382
:10063400D962D96A0A43DA628022196852040A43E9
:1006440080211A6089041A680A42FCD003215A687E
:100654008A435A605A6801390A435A600C22034992
:100664004B681340082BFBD1C8E7C046001002407A
:100674000CB8FFF8FFFFF6FEFFFFFBFFFFFFC0FF14
:10068400ACFEFFFF00200240FF7FC0FF7047C04662
:100694007047C046F0B5C64600B5324F1E003B68F1
:1006A40084B0050088461400002B41D0E8B200F065
:1006B400B5FA4146002000F059F92378002B43D0C5
:1006C400220004E02F2B05D02378002B06D0013420
:1006D4005C2BF7D123782200002BF8D13300224978
:1006E4000020A41A00F000FF204B013404219E4294
:1006F40005DC0139632E02DC0121092E22DC641899
:10070400182C0FDD0BAB03AA0A990020039300F009
:100714002FFC1749002000F029F904B004BC9046CE
:10072400F0BD052413490020611800F01FF9E9E722
:100734000093114A64330021002000F011FA0123D0
:100744003B60B3E70131DAE73300220006490020B9
:1007540000F0CAFE054B9E42E3DC0424632EE1DC78
:100764000124C9E76400002074190008E7030000AD
:10077400981900087C19000800000020F8B55746B5
:100784004E46DE464546E0B5724F04003B788A4645
:100794009146002B1ED103223A617A616E4A6F4959
:1007A400BA613A666E4AF96180217A661022C900FC
:1007B400BB627B62FB623B67FB667B673962BA663E
:1007C4006849F81D01F09BF86749380001F097F873
:1007D4002023BB7166003519ED007D19FFF756FF24
:1007E400EB6A9846012B69D0002B3FD0022B2BD10A
:1007F40000230134984663001C19E3009B466E6A8B
:10080400AB6A2C6AB34200D8E318013B9B1BA41BC0
:100814004C4500D94C469C4200D91C005B46FB1851
:10082400586851468019220001F060F84B461B1BA2
:1008340099462B6A3619A044A2449E420FD04B46D7
:100844006E62002BDCD101E000239846FFF720FF05
:1008540040463CBC90469946A246AB46F8BD0023B0
:100864006B624B46002BF1D00026C9E76A6AAB6A7B
:100874009346934253D9013B9B1A9945E6D85A466D
:100884003619F600BE19336A9D1A631C5C00E4181D
:10089400E4003F197B685B441800A94550D32A0043
:1008A400514601F023F84B4629005C1B51447868FB
:1008B400220001F01BF8C8467462C7E76A6AAB6A93
:1008C4009346296A934226D9013B9B1AC846994507
:1008D40000D998465B46CB1A9946631C5D00ED1817
:1008E400ED007D196B685B441800C8451DD34A466A
:1008F400514600F0FBFF4A46434651469B1A9B462D
:100904001A004944686800F0F1FF5B463419E400BA
:100914003F197B629AE7CB18013B9B1AD6E72A6AF8
:100924009B185A46013B9B1AA7E74246514600F0E2
:10093400DDFF5B463419E4003F1943447B6285E7DD
:100944004A46514600F0D2FF5B464B447362C846A8
:100954007CE7C046800400209C1900087C0000202D
:100964006C000020A8190008AC190008F8B5574617
:10097400DE464E4645460400E0B508008A46FFF7C9
:100984009FFB714F81463B78002B1ED103223A61B5
:100994007A616E4A6E49BA613A666E4AF96180219B
:1009A4007A661022C900BB627B62FB623B67FB660E
:1009B4007B673962BA666849F81D00F0A0FF674991
:1009C400380000F09CFF2023BB7166003519ED0050
:1009D4007D19FFF75BFEEB6A9846012B69D0002B6B
:1009E4003FD0022B2BD100230134984663001C19FD
:1009F400E3009B466E6AAB6A2C6AB34200D8E318E4
:100A0400013B9B1BA41B4C4500D94C469C4200D97E
:100A14001C005B46FB18586851468019220000F000
:100A240065FF4B461B1B99462B6A3619A044A2440A
:100A34009E420FD04B466E62002BDCD101E00023B6
:100A44009846FFF725FE40463CBC90469946A24690
:100A5400AB46F8BD00236B624B46002BF1D0002659
:100A6400C9E76A6AAB6A9346934253D9013B9B1A1E
:100A74009945E6D85A463619F600BE19336A9D1AC6
:100A8400631C5C00E418E4003F197B685B441800B5
:100A9400A94550D32A00514600F028FF4B462900AF
:100AA4005C1B51447868220000F020FFC846746241
:100AB400C7E76A6AAB6A9346296A934226D9013B1F
:100AC4009B1AC846994500D998465B46CB1A994665
:100AD400631C5D00ED18ED007D196B685B44180024
:100AE400C8451DD34A46514600F000FF4A464346D6
:100AF40051469B1A9B461A004944686800F0F6FE6A
:100B04005B463419E4003F197B629AE7CB18013B3A
:100B14009B1AD6E72A6A9B185A46013B9B1AA7E7F9
:100B24004246514600F0E2FE5B463419E4003F19A8
:100B340043447B6285E74A46514600F0D7FE5B4654
:100B44004B447362C8467CE7800400209C1900086B
:100B54007C0000206C000020A8190008AC190008D3
:100B6400F0B5C64600B5274C1E002378050088461C
:100B74001700002B23D02369AB4240D9FFF786FD31
:100B84000020002D0AD14019C000069B2418E362FE
:100B9400FFF77EFD002004BC9046F0BD6A1C5300A4
:100BA4009B184246DB00E2500022E31868005F60B5
:100BB4004319DB00E3181E629A625A62E3E70322D8
:100BC40022616261104A1149A2612266104AE16100
:100BD400802162661022C900A3626362E362236714
:100BE400E36663672162A2660A49E01D00F087FE9E
:100BF4000949200000F083FE2023A371BBE70120F4
:100C04004042C8E7800400209C1900087C000020B2
:100C14006C000020A8190008AC190008F0B5CE46F5
:100C2400474680B5504D83B02B780400002B3FD04D
:100C3400FF236A4613710F2C00D992E003274B4B14
:100C44001B5D5371FFF722FDEB6A1F40022F57D043
:100C5400AB6A6E6AB3420DD9013B9B1B012B10D8C2
:100C640001246442FFF714FD200003B00CBC90463D
:100C74009946F0BD2A6A94466344013B9B1B012BB1
:100C8400EED93B4B1C702B6A9C1BEB699819022C08
:100C94002ED80226220001A900F028FE361B01AB43
:100CA40019193200E86900F021FE00246E62D9E7C8
:100CB40003222A616A612F4A2F49AA612A662F4AB0
:100CC400E96180216A661022C900AB626B62EB6243
:100CD4002B67EB666B672962AA662949E81D00F059
:100CE4000EFE2849280000F00AFE2023AB719FE77E
:100CF400022201A9023600F0F9FD6E620024B1E778
:100D04001B4B6E6A1C7001AB9846002399462C6AF3
:100D1400AB6AB3421AD9013B9B1BA41BBC4200D94A
:100D24003C009C4200D91C00EB6922009819414602
:100D340000F0DCFDA0443F1B36192C6AA64209D002
:100D44006E62002FDAD0AB6AB342E4D8013B1B19C0
:100D54009B1BE2E74B466B62002FCFD0340000268A
:100D6400D6E7012464427FE780040020B419000818
:100D7400680000209C1900087C0000206C00002002
:100D8400A8190008AC190008F0B55746DE464E46CF
:100D94004546E0B583B01F000C9B05008A4616004B
:100DA4009B46914200D2DBE0080001243100FFF7AA
:100DB4008FF901348642F9D90094BC4200D20097DD
:100DC40001230D9A1A40019202D15B46002B7CD17B
:100DD400EB689946002B00DAADE0AB6898465346C1
:100DE4000124AA461D00012F03D9013F7443012F9A
:100DF400FBD821002800FFF76BF98642F6D92B00B7
:100E040055469A463300594F464698460AE04B46A3
:100E1400002B00DA9CE020004146FFF759F9041E3C
:100E240000D195E050462100FFF7D8F96B68721C99
:100E34008A469A420CD83B5C29688B55EB681600AD
:100E4400994601239C46E1444B46EB606B68AA60DB
:100E5400B342DCD1320029682869FFF78FFCAE6801
:100E6400B0426FD00123B0465B42EB60019B002B84
:100E740061D05B46002B5ED0009A5A455BD2434654
:100E84002024002690465F4606E0EA68002A52DBEA
:100E9400002F50D047454ED06A68591C013F9142FB
:100EA40007D82A68D454EB686A680133EB600B00F6
:100EB400A9609A42E9D129682869FFF75FFCAB6809
:100EC400984235D1AE600023DFE70D9B20249B07B9
:100ED40005D57C427C41634210241C402034009B95
:100EE4009B4500D874E7AB68B9461A0027005C46F6
:100EF400B346009E06E0EB68002B1CDB002C29D0D7
:100F0400B44227D06B68511C013C994207D82B6826
:100F14009F540A00EB68A9600133EB606B689A4246
:100F2400E9D129682869FFF729FCAB68984219D0F0
:100F340001235B42EB6003B03CBC90469946A24659
:100F4400AB46F0BD0023AB60EB68002699465EE734
:100F5400B0468BE75E464F469046A34699463EE729
:100F6400012429E700230022AB60C4E7C419000868
:100F7400F0B55746DE4645464E46E0B59DB00CAB4F
:100F8400079340230893002383460D0092460027CD
:100F940009930B900A932B780135002B18D0252B3D
:100FA4001FD00999089A481C904200D983E0079AF7
:100FB40053540A9B089A5F1C099002930A97904223
:100FC4007CD0002F00DA88E02B780135002BE6D1A5
:100FD400002F00DC81E0099A002A00D079E2BF18D2
:100FE4007BE00023984604339C462B78691C4246D8
:100FF4000126B846022408200F002B2B0CD02B2BE3
:101004000ED92D2B54D0302B0FD10D0022432B7829
:10101400691C0F002B2BF2D163460D001A43F6E72F
:10102400232B02D102430D00F1E7404690463A00DB
:10103400070018003038092800D9F5E000261A0006
:1010440001E00D000131B3009B195B009B180A7885
:10105400303B1E001300303B0C00092BF1D9130068
:10106400AA1C00252E2B68D0042100E023781A0046
:1010740001348A43682AF9D0642B00D10DE134D9B4
:10108400732B00D1D7E06ED9752B00D03FE15346C6
:1010940051461B6807A81A1D0A6019684346009642
:1010A40001930A222B00FFF76FFE0A9F250088E7B1
:1010B40032430D00ABE7914200D06CE7079B0293EB
:1010C4000B9B029918000393FFF758FB099B0293AB
:1010D400984200D1ABE001277F4238001DB03CBCF0
:1010E40090469946A246AB46F0BD582B00D111E17B
:1010F400632B7ED0252BD9D1099A0899501C88429C
:1011040008D807998B5402000A9B08995F1C099020
:1011140002930A978A42C9D1079B02930B9B0299B7
:1011240018000393FFF72AFB099B02939842D2D13C
:1011340000230A9F0993250043E763781900303997
:10114400092900D94AE11900AB005B1901325B009F
:101154005B181178303B1D000B00303B092BF3D991
:101164000B00140080E7702BA0D1534651461B6836
:101174001A1D0A601E680F2E03D933001B090F2B9A
:10118400FCD88025099BA0466D0534001E0005E0AF
:10119400002F00DA1FE12D0900D11CE120002900F5
:1011A400FFF71CF8089B721C0C009A420CD8079B92
:1011B4000293CC4B02991B5C8B5516000A9B099237
:1011C4005F1C0293089B0A979E42E1D1079B320061
:1011D40002930B9B029918000393FFF7CFFA099B24
:1011E4000293984200D076E700230A9F09930026D1
:1011F400CEE7534652461868031D1360099A089BAC
:10120400511C99420BD8079B02930368029883549C
:101214000A000A9B09915F1C0293089B0A979A4251
:1012240000D179E72500CCE62C00002619E700233D
:101234000A9F0993C5E6534651461B681A1D0A6066
:101244001D6829780135002900D12FE7099B0898EA
:101254005A1C82420DD80798C1540A9B09925F1CFC
:10126400089B0A9702939A4206D0002FE9DA2500D8
:10127400A7E68342E5D11A00079B02930B9B0299D0
:1012840018000393FFF77AFA099B0293984200D05F
:1012940021E700230A9F0993E7E7534651461B6859
:1012A4001A1D0A601B68DA1798180293012350402C
:1012B400994609280ADDA1461C000A21FEF792FF7F
:1012C40001340928F9DC23004C46994603954D4521
:1012D40077D3022342461340002E2CD1029B002BCD
:1012E40000DAE1E043465B077AD403234246134025
:1012F400022B00D19FE04346009601930A222B0063
:10130400029907A8FFF740FD25000A9F59E6782BAC
:1013140000D0CBE6534651461B6807A81A1D0A6045
:10132400196843460096019310222B00FFF72CFD09
:1013340025000A9F45E6029A002A4ADB42465207E4
:1013440047D4002B01D0002DC8D04346DB07C5D4B9
:10135400002EC3D0039B9E42C0D920213800099A95
:101364002F00894625001C0008E0002800DAACE0C4
:10137400002E00D1A3E0A64200D1A0E0089B511C9E
:10138400013E994209D84846079B98540A000A9B93
:101394000991581C0493089B0A909A42E5D1079B33
:1013A40004930B9B049918000593FFF7E7F9099B35
:1013B4000493984200D08EE600230A9809930022F1
:1013C400D3E74B464246039302231340002E85D0B5
:1013D400B1E7013EB5E744462500F2E5140043E6D3
:1013E400099B089A591C914217D9934200D07CE773
:1013F400079B04930B9B049918000593FFF7BEF910
:10140400099B0493984200D065E600230A9F099340
:10141400002F00DB69E72500D3E5079A04922B220D
:101424000498C2540A9B089A5F1C099104930A9772
:101434009142EDD1DCE7002D00D05CE7002E42D0D4
:10144400039B9E4200D856E73023099A994608E048
:10145400002F00DA2AE6002E35D0039B9E4200D1ED
:1014640049E7089B511C013E994209D84846079B0D
:1014740098540A000A9B09915F1C0493089B0A97DD
:101484009A42E5D1079B04930B9B0499180005939A
:10149400FFF774F9099B0493984200D01BE60023DC
:1014A4000A9F09930022D3E75B420293099B089A9F
:1014B400591C914299D8079A04922D22B0E72C0026
:1014C4003D0007000AE7002615E72C000700250069
:1014D40077E50CA95846FFF751F90A9F099ABF18F6
:1014E400FBE5C046C41900080EB400B582B003ABD6
:1014F40002CB01AA0193FFF73BFD02B008BC03B085
:101504001847C0460D488546002103E00C4B5B5844
:10151400435004310B480C4B42189A42F6D30B4A01
:1015240002E0002313600432094B9A42F9D3FFF717
:101534001FF800F0B7F9FEF741FFFEE70020002096
:10154400341A0008000000200000002000000020E1
:1015540028060020FEE70000012A07D0002A04D153
:1015640001328A40838A9343838270478A40838A04
:101574001A4392B28282F8E701238B40828A534055
:101584009BB283827047C046902330B5DB059842F6
:1015940035D0304B984247D02F4B984236D02F4B02
:1015A400984248D02E4B98424CD02E4B984234D07F
:1015B4000B785400A34005682B4303604B7885885F
:1015C40093402B439BB283808B788568A3402B4345
:1015D4008360CB78C568A3402B43C360072A07D92F
:1015E4000B79083A92009340446A2343436230BD26
:1015F4000B7992009340046A23430362F7E7802344
:10160400194C9B0265692B436361D1E78023164C17
:101614001B0365692B436361CAE78023124CDB0318
:1016240065692B436361C3E780230F4CDB02656963
:101634002B436361BCE780230B4C5B0365692B433D
:101644006361B5E78023084C9B0365692B436361A1
:10165400AEE7C0460004004800080048000C0048FB
:10166400001000480014004800100240902310B5F8
:10167400DB05984226D0284B984238D0274B984215
:1016840027D0274B984239D0264B98423DD0264B41
:10169400984225D001234A00934004682343036001
:1016A40083889BB2838003239340846823438360AD
:1016B400C368C360072902D9436A436210BD036A41
:1016C4000362FBE78023194A9B0254692343536155
:1016D400E0E78023154A1B03546923435361D9E788
:1016E4008023124ADB03546923435361D2E78023E6
:1016F4000E4ADB02546923435361CBE780230B4A30
:101704005B03546923435361C4E78023074A9B0363
:10171400546923435361BDE70004004800080048AE
:10172400000C00480010004800140048001002405B
:1017340010B51A4C82B0E3695B0618D4174CE36900
:101744009B0601D402B010BD154B164A00931649EE
:1017540018230020FEF79EFF1449A38C0A7814482E
:10176400DBB283540A2B12D001320A70EAE7114B20
:101774000C4A00930C4911230020FEF78BFF4022F2
:10178400236A134323620C4B3F3A1A70D6E70023B3
:1017940001220B70094B1A70D4E7C046003801408F
:1017A400141A0008D41900085C1900087C040020ED
:1017B40028050020101A00087E0400207D04002063
:1017C40070B50400027881684068FFF7DDFE627836
:1017D400A1686068FFF7D8FE8023284ADB0191697D
:1017E40080200B4393610122254D40012B689343D4
:1017F4002B60227B637B11030140DB030B436C21D1
:101804000B43A17BD20689020B43E17B49020B43C4
:10181400802149050A4013432B60237C1B036B6022
:101824000023AB60637B002B20D0012B12D001215D
:10183400134A13680B43C6211360124A8900535894
:101844001B021B0A5350802399391B05FF3953503F
:10185400136070BD61690C48FEF73AFC0F22030760
:101864005B0F9043184380B2A881E0E761690748A1
:10187400FEF72EFC80B2A881D9E7C04600100240D2
:101884000038014000E100E000D8B805006CDC023B
:101894008021034A80B21085D3691942FCD0704775
:1018A4000038014070B500260C4D0D4C641BA4108B
:1018B400A64209D1002600F0AFF80A4D0A4C641B79
:1018C400A410A64205D170BDB300EB589847013669
:1018D400EEE7B300EB5898470136F2E7000000004A
:1018E400000000000000000000000000002310B50C
:1018F4009A4200D110BDCC5CC4540133F8E7030014
:101904000A7801311A700133002AF9D170470000B6
:10191400484152444641554C542E00002E2E2F73FC
:1019240072632F6D61696E2E630000001B5B313B97
:1019340033316D004C4F475F494E49542E0000002F
:101944002E2E2F7372632F73746D33326630787852
:101954005F69742E630000001B5B323B33376D00FC
:10196400427574746F6E20636C69636B21000000B0
:1019740025733A2564000000202020202020202008
:101984002020202020202020202020202020202053
:10199400202000000D0A00005465726D696E616CB0
:1019A400000000005254540053454747455200007C
:1019B4003031323334353637383941424344454681
:1019C4003031323334353637383941424344454671
:1019D4002E2E2F2E2E2F2E2E2F4C6962726172699D
:1019E40065732F53544D3332463078785F4D794CBC
:1019F4006962726172792F7372632F6D795F757387
:101A04006172745F6472762E6300000054430000B8
:101A140052584E4500000000F8B5C046F8BC08BC5A
:101A24009E467047F8B5C046F8BC08BC9E46704751
:0400000508001509D1
:00000001FF
